:10000000002000208D750000B9750000B975000052
:10001000B9750000B9750000B9750000B975000028
:10002000B9750000B9750000B9750000B975000018
:10003000B9750000B9750000B9750000B975000008
:10004000B9750000B975000049470000B975000096
:10005000B9750000B9750000B9750000B9750000E8
:10006000B9750000B9750000B9750000B9750000D8
:10007000B9750000B9750000B9750000B9750000C8
:10008000B9750000B9750000B9750000712C000049
:10009000B975000010B5064C2378002B07D1054B2D
:1000A000002B02D0044800E000BF0123237010BDE4
:1000B0008C000020000000008496000008B5084B6A
:1000C000002B03D00748084900E000BF0748036839
:1000D000002B03D0064B002B00D0984708BDC0462C
:1000E000000000008496000090000020880000209E
:1000F00000000000164B002B00D1144B9D464022FF
:1001000092029A1A924600218B460F461348144ACF
:10011000121A07F01AFC0F4B002B00D098470E4B19
:10012000002B00D098470020002104000D000D484E
:10013000002802D00C4800E000BF07F0D7FB2000E9
:10014000290000F06DF807F0BBFBC0460000080076
:100150000020002000000000000000008C000020B3
:10016000800B0020000000000000000080B582B07D
:1001700000AF094B1B687B607B681B0E812B08D886
:10018000064B074A1A60074B064A1168064A0A409E
:100190001A60BD4602B080BDFC81E00F18600C40C3
:1001A00005000004E4800C40FFFFFFFE80B500AFB7
:1001B000044B044A126904218A431A6130BFBD46C8
:1001C00080BDC04600ED00E080B582B000AF021CEB
:1001D0003960FB1D1A70FB1D1B78052B02D83B688C
:1001E0000F2B06D90C4AE4235B00101C191C03F0EA
:1001F00087FD0A49FB1D1A78131CDB009B189B0026
:10020000CB1818335A683B68DA4001231340181C96
:10021000BD4602B080BDC0467C7A00000060004050
:10022000B0B584B002AF474B00221A70464B002293
:100230001A70464B00221A70FFF798FF012005F054
:1002400045FC434B181C012105F0CEF80220092182
:100250000222012305F01EFD02200A2102220123B1
:1002600005F018FD06F0C8F83A4B0020191C06F0FE
:10027000EDF8031C002B00D0FEE7374A80231B015A
:10028000101CFF211A1C07F060FB324B1C6A314B1B
:100290005D68304BD9682F4A2F4B002000900191A8
:1002A000101C191C00222B1CA0472A492A4A2B4B40
:1002B000081C032100F012F9294B1A683B1C1A6034
:1002C0003B1C00225A603B1C181C06F0E9FC254B25
:1002D000181C00F0ADFC244B234A1168234A0A4045
:1002E0001A601A4B1B78DBB2002B28D0174B002268
:1002F0001A70154B1B78DBB2002B10D0154B1C6A03
:10030000144B5D68134BD968124A194B00200090BA
:100310000191101C191C00222B1CA0470FE00D4B53
:100320001C6A0C4B5D680B4BD9680A4A114B0020C4
:1003300000900191101C191C00222B1CA047FFF7F4
:1003400035FFCEE7AD000020AE000020AF0000205A
:1003500000820200B0000020DC000020CC8A0000F7
:1003600000000020E092000000400C40FFFDFFFF75
:10037000CC820000CC7A000080B582B000AF0220B1
:100380000921FFF721FF021CFB1C51424A411A7050
:100390002B4B1B78FA1C12789A420CD0FB1C1B7852
:1003A000002B02D0274B7B6001E0274B7B607B68F2
:1003B000181C06F099FCFB1C1B78002B12D0204B5C
:1003C0001B7801225340DBB2002B0BD01F4B1B6864
:1003D0005A1C1E4B1A601D4B1B68022B02D11B4B73
:1003E00000221A60164BFA1C12781A7002200A2199
:1003F000FFF7EAFE021CBB1C51424A411A70104B27
:100400001B78BA1C12789A420CD0BB1C1B78002BAC
:1004100002D00F4B7B6001E00B4B7B607B68181CAC
:1004200006F062FC064BBA1C12781A70094B0120C8
:1004300032211A1C04F086FBBD4602B080BDC046C6
:10044000AC0000206C7A0000647A0000A800002054
:10045000747A00007903000080B582B000AF0A1CF6
:10046000FB1D011C1970BB1D1A70FB1D1A78BB1DEA
:100470001B78101C191C06F0D5FDBB1D1B78052B25
:1004800010D1FB1D1B78062B05D0114B00221A60E2
:10049000104B00221A70104B012032211A1C04F05C
:1004A00051FB12E0FB1D1B78052B07D1BB1D1B78F0
:1004B000062B03D0012004F0E1FB06E0BB1D1B78F6
:1004C000062B02D1012004F0D9FBBD4602B080BD4D
:1004D000A8000020AC0000207903000090B593B084
:1004E00002AFF8607A603B603B1C0B330A1C1A7049
:1004F0003B1C0B331B78032B53D10023FB634CE0D5
:1005000000233B6343E03B6B1B013A68D318FB625B
:100510003B6B1B017A68D3187B6200237B6321E06D
:10052000FB6B1022D21A7B6B9A420BDD7A6BFB6B52
:10053000D3187A6AD3181A78391C14317B6BCB180C
:100540001A700CE0FB6B1A1C103A7B6BD318FA6A1A
:10055000D3181A78391C14317B6BCB181A707B6B4B
:1005600001337B637B6B0F2BDADDFB681C6AFB6856
:100570005B68386BF9683A1C1432009001200190D6
:10058000081C111C0022A0473B6B01333B633B6BF3
:100590007F2BB8DDFB6B0133FB63FB6B102BAFDDF7
:1005A00044E00023FB633EE03B1C0B331B78012B34
:1005B0000BD1FB6B1B017A68D318BB62FB6B8022EB
:1005C000D31ABB633B68FB620AE0FB6B8022D31A41
:1005D0001B013A68D318BB62FB6BBB637B68FB6291
:1005E00000233B6319E03A6BBB6B9A4201D1FB6A73
:1005F000BB62FB681C6AFB685B68386BF968BA6AA7
:10060000009001200190081C111C0022A047BB6A29
:100610001033BB623B6B01333B633B6B7F2BE2DDF3
:10062000FB6B0233FB63FB6B802BBDDDBD4611B062
:1006300090BDC04680B582B000AF021CFB1D1A7091
:10064000064BFA1D1278111C1F220A400121081CBA
:100650009040021C1A60BD4602B080BD00E100E07F
:1006600080B582B000AF021CFB1D1A70084AFB1D4A
:100670001B78191C1F230B400121081C9840031CE8
:10068000191CC0235B00D150BD4602B080BDC046DE
:1006900000E100E080B500AF72B6074B1B68013384
:1006A00004D0054B1B685A1C034B1A60024B1B6895
:1006B000181CBD4680BDC0460C0A002080B582B023
:1006C00000AF0B4B1B68002B0DD0094B1B685A1E4B
:1006D000074B1A60064B1B687B607B68002B00D1C0
:1006E00062B67B6800E00023181CBD4602B080BDE6
:1006F0000C0A002080B500AF054A0549054BCB58D0
:100700000121181C8843011C024BD150BD4680BDFD
:1007100000400C4008C0030080B500AF044A044903
:10072000044BCB5801211943024BD150BD4680BD2B
:1007300000400C4008C0030080B500AF044B5A686D
:10074000012313405A1E9341DBB2181CBD4680BDE5
:1007500000400C4080B500AF054A064B0021D15047
:10076000034A044BC0214901D150BD4680BDC0465B
:1007700000400C4018C0030080B584B000AF786022
:100780003B1C0F3300221A707A683B1C0C33101C80
:10079000191C00F015F8031C002B0AD13B1C0C336C
:1007A0001B881A1C01231A403B1C0F33511E8A411F
:1007B0001A703B1C0F331B78181CBD4604B080BD5B
:1007C00080B586B000AF786039603B1C1733FF22DC
:1007D0001A707B681B78002B24D07B689B785B01A8
:1007E000264A9B181B683B613A69C0231B031340D0
:1007F000FB60FA68C0231B039A4204D0FA68802386
:100800001B039A4232D13A6980239B0313405A1E3C
:100810009341DBB21A1C3B681A803B1C1733002241
:100820001A7023E07B689B785B01154A9B181B6854
:100830003B613A69C0231B031340FB60FA68C02385
:100840001B039A4204D0FA6880231B039A420DD1FD
:100850003A6980239B0313405A1E9341DBB21A1C52
:100860003B681A803B1C173300221A703B1C17335D
:100870001B785BB2181CBD4606B080BD0009104055
:10088000000B104080B582B000AF7860034A7968F1
:10089000034BD150BD4602B080BDC04600400C4065
:1008A00014C9030080B582B000AF7860034A79684C
:1008B000034BD150BD4602B080BDC04600400C4045
:1008C00014CB030080B582B000AF786039600B4A6A
:1008D0007B68802109031943094BD150074A074916
:1008E000084BC958084B19403B680B438421090643
:1008F0001943044BD150BD4602B080BD00400C40AE
:1009000010C9030000C90300FFFFFF4380B582B098
:1009100000AF786039600B4A7B6880210903194376
:10092000094BD150074A0749084BC958084B194091
:100930003B680B43842109061943044BD150BD4643
:1009400002B080BD00400C4010CB030000CB030080
:10095000FFFFFF4380B584B000AF78607B681B6900
:10096000002B04D10123FB600023BB6010E07B68F7
:100970001A697B689B89D3185A1E7B689B89101C57
:10098000191C06F0CBFE031CFB607B681B69BB6077
:100990007B689B785B0116495B187A6892785201F4
:1009A000134952181269D20FD107BA681143FA6875
:1009B000D2040A431A617B689B785B010C4A9B183E
:1009C0007A6892685A617B689B785B0108495B187A
:1009D0007A6892785201064952181168054A0A400D
:1009E000842109060A431A60BD4604B080BDC04692
:1009F00000091040FFFFFF4380B584B000AF78606E
:100A00007B681B69002B05D10123FB607B689B89F8
:100A1000BB6012E07B681A697B689B89D3185A1EF9
:100A20007B689B89101C191C06F078FE031CFB6078
:100A30007B689B89FA685343BB607B689B785B014A
:100A400017495B187A689278520115495218126951
:100A5000520F5107BA681143FA68D2040A431A6167
:100A60007B68BA689A617B689B785B010C4A9B182B
:100A70007A6892685A617B689B785B0108495B18C9
:100A80007A6892785201064952181168054A0A405C
:100A9000842109060A431A60BD4604B080BDC046E1
:100AA000000B1040FFFFFF4380B582B000AF7860BD
:100AB0007B689B78002B04D17B68181C00F008F839
:100AC00003E07B68181C00F045F8BD4602B080BD0D
:100AD00080B584B000AF78607B681B78002B23D092
:100AE0007B681B69002B02D17B6801225A707B68EE
:100AF0009B68181CFFF7C6FE7B681B69FB603B1CEC
:100B00000A337A6892891A803B1C0A331B88FA6878
:100B1000934200D9131C0E4A1168A4228A58181C4B
:100B2000111CFFF7CFFE0FE07B689B68181CFFF7D6
:100B3000B9FE7B689B891A1C054B1968A423CB5806
:100B4000101C191CFFF7E2FEBD4604B080BDC04674
:100B50000400002080B582B000AF78607B681B780D
:100B6000002B04D07B68181CFFF7F4FE03E07B68C1
:100B7000181CFFF741FFBD4602B080BD80B584B0B0
:100B800000AF021CFB1D1A700023BB60FB1D1B780D
:100B90005BB2002B0BDA1A4B1968FB1D1A780F2376
:100BA0001A4080238A18D3181B79FB600AE0144B83
:100BB0001968FB1D1A780F231A4090238A18D3183E
:100BC0001B79FB60FB68002B0BD00D4B1968FA6892
:100BD000131C9B009B18DB003033CB180433BB6025
:100BE00008E0FB1D1A780F23134003D1044B1B6848
:100BF0003433BB60BB68181CBD4604B080BDC04622
:100C00000400002080B500AFFFF744FD03F0B8F802
:100C1000FFF754FDBD4680BD80B500AF034B1A6899
:100C20002023D35C181CBD4680BDC04604000020B4
:100C300080B58EB000AF7860DC4B181C012104F049
:100C4000D3FBDB4B181C022104F0F0FDD94B181C20
:100C5000012104F0C9FB03F08FFED74B1B68181C61
:100C60000021A82206F071FED34B1B68D24A1268FD
:100C700004321A60D04B1B687A6812685A62CE4BF5
:100C80001B687A6852689A62CB4B1B687A689268D4
:100C9000DA62C94B1B687A68127B9A77C64B1A686E
:100CA00020230721D154C44B1A6821230021D15499
:100CB000C14B1A6822230021D154BF4B1B687A68AC
:100CC00052691A63BC4B1B6800225A77BA4B1B68E7
:100CD0003433BB61BB6900221A70BB6900229A6081
:100CE000BB6900229A70BB690122DA81BB690022CC
:100CF000DA70BB6900221A71BB6900225A717B68E5
:100D00001B68DB791A1CBB699A81BB699B89202B04
:100D100005D1A94B1A68A4230121D1500CE0BB696D
:100D20009B89402B05D1A44B1A68A4230021D150E4
:100D300002E004235B42DEE1BB6900221A61BB6969
:100D400000225A61BA6920230021D154BB690022D4
:100D50005A62BB699B899B089BB21A1CBB69DA610A
:100D6000BB69DA697B681B691B7853437B62BB698B
:100D7000DB695A1C7B681B691B785343BB620023E9
:100D80007B6300233B620023FB618B4B1B689B6AE8
:100D9000FB62894B1B689B6A9A78DB781B021343C2
:100DA0009BB2FA6AD3187B613B1C333301221A7061
:100DB00011E1FB6A1B78002B09D1804A5C23FF33C9
:100DC000101C191C02F09CFF04235B4293E1FB6A98
:100DD00001331B78052B00D0CBE07B6B01337B63A9
:100DE000FB6A3B61744B19687A6B131C9B009B1860
:100DF000DB003033CB180433BB613B699B78DBB23B
:100E0000DB09DAB2BB691A70BB6900229A603B69E0
:100E10009A78BB69DA70BB69DA780F231340DAB2CB
:100E2000BB699A70BB699B780122111C99400B1C0D
:100E30009AB2BB69DA813B69DA7803231340DAB2EC
:100E4000BB691A713B691A795B791B0213439AB229
:100E5000BB699A81BB6900221A61BB6900225A6191
:100E6000BA6920230021D154BB6900225A627B68F1
:100E70001A697B6BD3181B78002B09D14F4ABA2310
:100E80005B00101C191C02F03BFF04235B4232E1A3
:100E9000BB691B78002B3AD03B6A01333B623B1C99
:100EA00033331B783A1C3332591C1170BA695371B1
:100EB000BB699B890333002B00DA03339B101A1C98
:100EC0007B6819697B6BCB181B7853431A1CBB6971
:100ED000DA61394B1868BB699B78191C7B6BDAB2F5
:100EE00080234118CB181A71BB69DB697A6AD31861
:100EF0007B62BB699B78032B68D9304A8423FF331C
:100F0000101C191C02F0FCFE04235B42F3E0FB6999
:100F10000133FB61BB699B890333002B00DA033388
:100F20009B105A1C7B6819697B6BCB181B78534349
:100F30001A1CBB69DA61204B1868BB699B78191CC5
:100F40007B6BDAB290234118CB181A71BB69DB694D
:100F5000BA6AD318BB62BB699B78032B36D9174A90
:100F60009223FF33101C191C02F0CAFE04235B42BB
:100F7000C1E0FB6A01331B78042B27D1FB6AFB60BD
:100F8000FB68DB78002B21D10B4B1B68DA7FFB68F9
:100F90009B789A4214D0094AA023FF33101C191CD5
:100FA00002F0AEFE04235B42A5E0C046002304002D
:100FB00006001E0006072000040000205C930000CD
:100FC0004F4B1B68DA7F0132D2B2DA77FB6A1B78AB
:100FD000FA6AD318FB62FA6A7B699A4200D2E8E6A1
:100FE000BB6A1333BB62464B1B689B6A1A79444B3E
:100FF0001B68DB7F9A4209D0424AD9235B00101C50
:10100000191C02F07DFE04235B4274E07B6B012B14
:1010100009D03C4ABA23FF33101C191C02F070FEA1
:1010200004235B4267E03B6A032B09D9354AE0237E
:101030005B00101C191C02F063FE04235B425AE0A3
:10104000FB69032B09D92F4AC823FF33101C191C35
:1010500002F056FE04235B424DE0FFF71BFB2A4BD8
:10106000294A126C18210A431A64274ADC230121F9
:10107000D150264B181C092104F0D8FB224A2249E2
:10108000D023CB5801211943D023D150204BA42287
:1010900092001A60FFF72EFBBA6A7B6A101C191CBB
:1010A00002F080FE031C002B0FD1FFF753FBFFF76C
:1010B00033FB1320FFF7D4FA1320FFF7BBFAFFF737
:1010C0003BFB031C002B10D00BE0FFF7F7FA0D4A97
:1010D000F6235B00101C191C02F012FE04235B4275
:1010E00009E0022000F0BAF802E0002000F0B6F8B3
:1010F000FFF7E4FA0023181CBD460EB080BDC046C1
:10110000040000205C93000000800C4005331C00AC
:1011100000400C4080B586B000AFF860B9607A60DE
:101120003B60FB68DBB2181CFFF728FD031C7B61EA
:101130007B69002B08D1434A434B101C191C02F059
:10114000DFFD04235B4279E07A68404B9A420ADC77
:101150007B699B897868191C06F02EFB031C1A1CFE
:101160003B4B9A4208DD374A3A4B101C191C02F0DF
:10117000C7FD04235B4261E0BA680323134009D032
:10118000304A8C239B00101C191C02F0B9FD04236B
:101190005B4253E0FFF77EFA7B69181CFFF7ECFA1D
:1011A000031C002B04D0FFF789FA05235B4245E0BE
:1011B0007A692023D35C002B04D0FFF77FFA022347
:1011C0005B423BE07B699B78002B09D0FFF724FD55
:1011D000031C052B04D0FFF771FA09235B422DE0B5
:1011E0007B69BA689A607A687B691A617B690022B8
:1011F0005A617B699B78002B03D17B6900221A70AE
:101200000EE07B691B78002B0AD0FFF757FA0D4AD6
:10121000114B101C191C02F073FD04235B420DE0FE
:101220007A6920230221D1547B693A685A627B692A
:10123000181CFFF739FCFFF741FA0023181CBD46C4
:1012400006B080BD5C93000021020000FFFF070094
:10125000FF030000290200005602000080B584B0A0
:1012600000AF021CFB1D1A701D4B19683B1C0F338D
:1012700020228A5C1A70FB1D1B78062B06D1184BA6
:101280001A68391C0F3121230978D154144B1A687C
:10129000134B19682023C95C2223D154104B1A68C0
:1012A000F91D20230978D1540D4B1B681B6B5B681B
:1012B000002B12D03A1C0F32FB1D12781B789A4279
:1012C0000BD0074B1B681B6B5B683A1C0F32117805
:1012D000FA1D1278081C111C9847BD4604B080BD49
:1012E0000400002080B586B000AFF860B9607A6075
:1012F0003B60FB68DBB2181CFFF740FC031C7B6102
:101300007B69002B09D1454ACD239B00101C191C79
:1013100002F0F6FC04235B427CE07A68404B9A4280
:101320000ADC7B699B897868191C06F045FA031C66
:101330001A1C3C4B9A4209DD384ACF239B00101CF3
:10134000191C02F0DDFC04235B4263E0BA6803234E
:10135000134008D0314A344B101C191C02F0D0FC49
:1013600004235B4256E0FFF795F97B69181CFFF7F1
:1013700003FA031C002B04D0FFF7A0F905235B42FE
:1013800048E07A692023D35C002B04D0FFF796F95C
:1013900002235B423EE07B699B78002B09D0FFF77C
:1013A0003BFC031C052B04D0FFF788F909235B42A3
:1013B00030E07B69BA689A607A687B691A617B69F8
:1013C00000225A617B699B78002B03D17B69012243
:1013D0001A7011E07B691B7801225340DBB2002BAD
:1013E0000AD0FFF76BF90D4A104B101C191C02F0C4
:1013F00087FC04235B420DE07A6920230121D1544C
:101400007B693A685A627B69181CFFF74DFBFFF74E
:1014100055F90023181CBD4606B080BD5C93000042
:10142000FFFF0700FF030000430300006903000003
:1014300080B584B000AF78600A1CFB1C1A70FB1CDE
:101440001B78002B03D07A6820230021D1547B68BD
:101450001B78002B2FD07B68DB89FB607B689B7837
:101460005B01304A9B181A682F4B1340BB60BA6867
:1014700080231B02134011D1BA682C4B1A407B68A1
:101480009B891A437B681B799B041A437B685B79B1
:101490009B051343264A1343BB6004E0BB688022CC
:1014A00052051343BB607B689B785B011D4A9B1808
:1014B000BA681A602BE07B68DB891B04FB607B68E1
:1014C0009B785B011B4A9B181A68174B1340BB6043
:1014D000BA6880231B0213400DD1BA68164B1A401C
:1014E0007B689B891A437B681B799B041343104AD2
:1014F0001343BB6004E0BB68802252051343BB600A
:101500007B689B785B010B4A9B18BA681A600B4A90
:101510000A490B4BC958FB681943094BD150BD46CA
:1015200004B080BD00091040FFFFFFC300F813FCAA
:1015300000800018000B104000F8D3FF00400C4062
:101540001CC8030080B584B000AF78607B681B784E
:10155000002B0AD07B689B785B010F4A9B18002206
:101560001A607B68DB89FB600AE07B689B785B0123
:101570000A4A9B1800221A607B68DB891B04FB6007
:10158000074A0749074BCB58F968C9431940054B2F
:10159000D150BD4604B080BD00091040000B104082
:1015A00000400C401CC8030080B586B000AF7860D6
:1015B00039603B1C1733FF221A707B681B78002BA5
:1015C00024D07B689B785B01264A9B181B683B6193
:1015D0003A69C0231B031340FB60FA68C0231B0356
:1015E0009A4204D0FA6880231B039A4232D13A69A6
:1015F00080239B0313405A1E9341DBB21A1C3B68A5
:101600001A803B1C173300221A7023E07B689B78FA
:101610005B01154A9B181B683B613A69C0231B0399
:101620001340FB60FA68C0231B039A4204D0FA6897
:1016300080231B039A420DD13A6980239B031340F8
:101640005A1E9341DBB21A1C3B681A803B1C1733AD
:1016500000221A703B1C17331B785BB2181CBD4666
:1016600006B080BD00091040000B104080B582B06C
:1016700000AF021CFB1D1A70084A0849F2239B02A6
:10168000C958074B1940FB1D1B781B011943F22356
:101690009B02D150BD4602B080BDC04600400C4008
:1016A0000FF8FFFF80B586B000AF78603B1C1333A6
:1016B000FF221A707B681B78002B29D07B689B78EF
:1016C0005B01284A9B181A68274B13407B617A6993
:1016D000C0231B031340FB60FA688023DB029A429D
:1016E00037D07B69002B04DA7B698022D205134353
:1016F0007B617B689B785B011A4A9B187A69802121
:1017000089030A431A603B1C133300221A7020E03D
:101710007B689B785B01154A9B181A68124B134033
:101720007B617A69C0231B031340FB60FA68802346
:10173000DB029A420DD07B689B785B010B4A9B18B9
:101740007A69802189030A431A603B1C1333002203
:101750001A703B1C13331B785BB2181CBD4606B0D5
:1017600080BDC04600091040FFFFFFC3000B1040C2
:1017700080B586B000AF78603B1C1733FF221A702B
:101780007B681B78002B2CD07B689B785B012F4AF1
:101790009B181A682E4B13403B613A69C0231B0308
:1017A0001340FB60FA68C0231B039A4204D0FA6816
:1017B00080231B039A4240D13B6980225205134388
:1017C0003B613A69234B13403B617B689B785B012B
:1017D0001E4A9B183A691A603B1C173300221A7084
:1017E0002BE07B689B785B011B4A9B181A68184B9F
:1017F00013403B613A69C0231B031340FB60FA6846
:10180000C0231B039A4204D0FA6880231B039A4228
:1018100013D13B698022520513433B613A690D4B5A
:1018200013403B617B689B785B010B4A9B183A69CC
:101830001A603B1C173300221A703B1C17331B78AD
:101840005BB2181CBD4606B080BDC0460009104002
:10185000FFFFFFC3FFFFDFFF000B104080B584B028
:1018600000AF021CFB1D1A700123FB6012E00C4B41
:101870001968FA68131C9B009B18DB003033CB18E7
:101880001A1DFB1D1B78101C191CFFF7D1FDFB68EE
:101890000133FB60FB68012BE9DDBD4604B080BD70
:1018A0000400002080B584B000AF021CFB1D1A703C
:1018B0000123FB6016E0114B1968FA68131C9B00AA
:1018C0009B18DB003033CB180433BB60BA6820238D
:1018D000D35C002B03D1BB68181CFFF733FEFB68F9
:1018E0000133FB60FB68012BE5DDFB1D1B785BB260
:1018F000181C02F019FEBD4604B080BD0400002093
:1019000080B584B000AF021CFB1D1A700023BB60C1
:10191000FB1D1B785BB2002B0BDA1A4B1968FB1D01
:101920001A780F231A4080238A18D3181B79FB607A
:101930000AE0144B1968FB1D1A780F231A409023F4
:101940008A18D3181B79FB60FB68002B0BD00D4B5A
:101950001968FA68131C9B009B18DB003033CB1806
:101960000433BB6008E0FB1D1A780F23134003D13A
:10197000044B1B683433BB60BB68181CBD4604B005
:1019800080BDC0460400002080B584B000AF786000
:101990007B681B68BB607B681B6B9B68002B0CD053
:1019A0007B681B6B9B68BA68101C9847031CFB6024
:1019B000FB68033301D0FB6853E001235B42FB600B
:1019C000BB681B785B069B0FDBB2002B48D1BB6862
:1019D0005B780B2B43D89A00244BD3181B689F4687
:1019E0007B68181C00F000FA031CFB6038E07B6881
:1019F000181C00F03DF8031CFB6031E07B68181CEC
:101A000000F0E0FB031CFB602AE07B68181C00F080
:101A1000CFFA031CFB6023E07B68181C00F0F8F889
:101A2000031CFB601CE07B68181C00F093F8031C8F
:101A3000FB6015E07B68181C00F024FB031CFB60B6
:101A40000EE07B68181C00F07FF9031CFB6007E0C8
:101A50007B68181C00F042FC031CFB6000E0C046E1
:101A6000FB68181CBD4604B080BDC04670930000E2
:101A700080B586B000AF786001235B427B617B68F4
:101A80001B683B613B699A79DB791B0213439BB26C
:101A9000002B02D001235B4258E03B691B78DB0638
:101AA000DB0EDBB2002B02D0022B28D04DE03B69CD
:101AB0001A795B791B0213439BB2002B1ED13B6941
:101AC0009A78DB781B0213439BB2012B16D17A68FC
:101AD0002023D35C042B04D07A682023D35C052B0D
:101AE0000CD17B689B6ADB791A1C2023134005D03C
:101AF0007B6800225A7700237B6126E025E03B6962
:101B00001A795B791B0213439BB2DBB2181CFFF7F7
:101B1000F7FE031CFB60FB68002B16D0FB689B786C
:101B2000002B12D03B699A78DB781B0213439BB2DF
:101B3000002B0AD17A682023D35C052B05D1FB68E2
:101B4000181CFFF715FE031C7B617B69181CBD4642
:101B500006B080BD80B586B000AF786001235B42DF
:101B60007B617B681B683B61284BFB603B691A7992
:101B70005B791B0213439BB2002B1DD13B699A7901
:101B8000DB791B0213439BB2012B15D13B699A7879
:101B9000DB781B0213439BB2002B0DD13B691B78F2
:101BA0001B06DB0FDBB2012B06D13B691B78DB0682
:101BB000DB0EDBB2002B02D001235B4221E07A680E
:101BC0002023D35C042B0CD1FB6800221A70FB6825
:101BD0000020191C01220023FFF784FB031C7B61FA
:101BE0000EE07A682023D35C052B09D17B681C3377
:101BF0000020191C01220023FFF774FB031C7B61EA
:101C00007B69181CBD4606B080BDC0468409002013
:101C100080B58AB000AF78603B1C263300221A8062
:101C200000233B6201235B42FB617B681B68BB6155
:101C3000BB691B78DB06DB0EDBB2002B06D1BB6970
:101C40001B781B06DB0FDBB2012B02D001235B42AA
:101C500075E0BB699A78DB781B0213439BB21A1CB0
:101C6000FF2313407B61BB699A78DB781B02134327
:101C70009BB21B0A9BB2022B11D0032B20D0012B4D
:101C800034D17B69002B00D030E07B685B6A3B621B
:101C90007B685B6A1A783B1C26331A8026E07B69D6
:101CA000002B00D022E07B689B6A3B627B689B6ACA
:101CB0003A1C26329978DB781B020B43138015E01F
:101CC0007B689B7F1A1C7B699A420EDD7B68DA6A0F
:101CD0007B699B00D3181B683B613B693B623B6996
:101CE0001A783B1C26331A80FFE7C0463B1C26337C
:101CF0001B88002B22D03B1C0E333A1C2632128844
:101D00001A803A1C0C32BB699979DB791B020B43B0
:101D100013803B1C0C333A1C0E3212881B8898B27D
:101D200091B2884200D9131C9BB23A6A0020111C60
:101D30001A1C0023FFF7D6FA031CFB61FB69181C71
:101D4000BD460AB080BDC04680B586B000AF7860A1
:101D500001235B427B617B681B683B61214BFB601D
:101D60003B691A795B791B0213439AB27B68DB7F6C
:101D70009A421DD23B699A79DB791B0213439BB2CD
:101D8000012B15D13B699A78DB781B0213439BB278
:101D9000002B0DD13B691B781B06DB0FDBB2012B3F
:101DA00006D13B691B78DB06DB0EDBB2012B02D0D0
:101DB00001235B4211E07A682023D35C052B0BD111
:101DC000FB6800221A70FB680020191C0122002306
:101DD000FFF788FA031C7B617B69181CBD4606B0BF
:101DE00080BDC0468409002080B586B000AF786011
:101DF00001235B427B617B681B683B616B4BFB6033
:101E00003B699A78DB781B0213439BB2002B0ED1FF
:101E10003B699A79DB791B0213439BB2022B06D1F3
:101E20003B691B781B06DB0FDBB2012B02D00123C1
:101E30005B42B7E03B691B78DB06DB0EDBB2012BB4
:101E400052D0022B00D179E0002B00D0A9E03B69F1
:101E50001A795B791B0213439BB2002B43D17A683A
:101E60002023D35C042B04D07A682023D35C052B79
:101E700039D1FB6800221A807B685B7F002B06D07B
:101E8000FB681B88022213439AB2FB681A807B68A6
:101E90001B6BDB68002B0ED07B681B6BDB689847E5
:101EA000031C002B15D0FB681B88012213439AB238
:101EB000FB681A800DE07B689B6ADB791A1C402363
:101EC000134006D0FB681B88012213439AB2FB68BB
:101ED0001A80FB680020191C02220023FFF702FA77
:101EE000031C7B615DE05CE07A682023D35C042BFB
:101EF00007D13B691A795B791B0213439BB2002B14
:101F00000ED07A682023D35C052B16D13B691A7951
:101F10005B791B0213439AB27B68DB7F9A420CD237
:101F2000FB6800221A80FB680020191C0222002393
:101F3000FFF7D8F9031C7B6133E032E03B691A7983
:101F40005B791B0213439BB2DBB2181CFFF7D8FC72
:101F5000031CBB60BB68002B22D07A682023D35CB3
:101F6000042B03D1BB689B78002B04D07A68202314
:101F7000D35C052B14D1BA68FB68101C191CFFF741
:101F800013FB031C7B617B69002B09D1FB680020DC
:101F9000191C02220023FFF7A5F9031C7B61FFE750
:101FA000C0467B69181CBD4606B080BD8409002070
:101FB00080B584B000AF786001235B42FB607B6832
:101FC0001B68BB60BB681A795B791B0213439BB229
:101FD000002B16D1BB689A79DB791B0213439BB2A5
:101FE000002B0ED1BB689A78DB781B0213439BB29F
:101FF0007F2B06D8BB681B78DB06DB0EDBB2002B21
:1020000002D001235B4239E07A682023D35C032BA2
:1020100017D1BB689A78DB781B0213439BB2002B65
:1020200002D00420FFF71AF9BB689A78DB781B020C
:1020300013439BB2DBB2181CFFF718FB0023FB60B5
:102040001BE07A682023D35C042B16D1BB689A78F6
:10205000DB781B0213439BB2002B02D10320FFF756
:10206000FDF8BB689A78DB781B0213439BB2DBB2A6
:10207000181CFFF7FBFA0023FB60FB68181CBD4629
:1020800004B080BD80B584B000AF786001235B42AE
:10209000FB607B681B68BB60BB681A795B791B02BD
:1020A00013439BB2002B18D1BB689A79DB791B02D2
:1020B00013439BB2002B10D1BB689A78DB781B02CC
:1020C00013439BB21B0A9BB2002B06D1BB681B7843
:1020D000DB06DB0EDBB2002B02D001235B426CE09F
:1020E0007A682023D35C042B2FD1BB689A78DB78E5
:1020F0001B0213439BB2002B0AD0BB689A78DB7893
:102100001B0213439AB27B689B6A5B799A4253D154
:10211000BB689A78DB781B0213439BB2DAB27B6808
:102120001A77BB689A78DB781B0213439AB27B68F4
:102130009B6A5B799A4205D10120FFF78FFB05204E
:10214000FFF78CF80023FB6036E07A682023D35C2D
:10215000052B31D1BB689A78DB781B0213439BB205
:10216000002B0AD0BB689A78DB781B0213439AB223
:102170007B689B6A5B799A421ED1BB689A78DB7850
:102180001B0213439BB2DAB27B681A77BB689A785A
:10219000DB781B0213439BB2002B08D10420FFF70E
:1021A0005DF809235B42181CFFF77CFB02E000206E
:1021B000FFF754FB0023FB60FB68181CBD4604B00E
:1021C00080BDC04680B586B000AF786001235B4219
:1021D0007B617B681B683B613B699A79DB791B02F9
:1021E00013439BB2002B02D001235B4271E03B6999
:1021F0001B78DB06DB0EDBB2002B02D0022B23D0D8
:1022000066E03B691A795B791B0213439BB2002B92
:1022100019D13B699A78DB781B0213439BB2012BDF
:1022200011D17A682023D35C052B0CD17B689B6A83
:10223000DB791A1C2023134005D07B6801225A77D2
:1022400000237B6144E043E03B691A795B791B0220
:1022500013439BB2DBB2181CFFF752FB031CFB605D
:10226000FB68002B34D0FB689B78002B30D03B6997
:102270009A78DB781B0213439BB2002B28D17A6833
:102280002023D35C052B23D1FB68181CFFF70AFA27
:10229000031C7B61FA6820230021D1547B69002B49
:1022A00016D1FA682023D35C002B11D0FB685B6A3F
:1022B000002B0DD0FB685B6ABB60FB6800225A6292
:1022C000FB685969FB681A6905235842BB6898473F
:1022D0007B69181CBD4606B080BDC04680B584B081
:1022E00000AF786001235B42FB607B681B68BB60CA
:1022F000BB681A795B791B0213439AB27B68DB7F58
:102300009A4220D2BB689A79DB791B0213439BB2B5
:10231000002B18D1BB689A78DB781B0213439BB261
:10232000002B10D17A682023D35C052B0BD1BB681E
:102330001B78DB06DB0EDBB2012B04D10020FFF79C
:102340008DFA002300E0FB68181CBD4604B080BD78
:1023500080B586B000AF78603B1C1333FF221A7043
:102360007B681B78002B29D07B689B785B01284A0F
:102370009B181A68274B13407B617A69C0231B03A3
:102380001340FB60FA688023DB029A4237D07B69F6
:10239000002B04DA7B698022D20513437B617B68C2
:1023A0009B785B011A4A9B187A69802189030A434A
:1023B0001A603B1C133300221A7020E07B689B7864
:1023C0005B01154A9B181A68124B13407B617A69AE
:1023D000C0231B031340FB60FA688023DB029A4290
:1023E0000DD07B689B785B010B4A9B187A69802132
:1023F00089030A431A603B1C133300221A703B1CEA
:1024000013331B785BB2181CBD4606B080BDC046B6
:1024100000091040FFFFFFC3000B104080B582B0E1
:1024200000AF786039600B4A7B688021090319434B
:10243000094BD150074A0749084BC958084B194066
:102440003B680B43842109061943044BD150BD4618
:1024500002B080BD00400C4010C9030000C9030059
:10246000FFFFFF4380B582B000AF786039600B4A50
:102470007B68802109031943094BD150074A07495A
:10248000084BC958084B19403B680B438421090687
:102490001943044BD150BD4602B080BD00400C40F2
:1024A00010CB030000CB0300FFFFFF4380B582B0D9
:1024B00000AF78607A6834230021D1540F4A104B62
:1024C0001049D1507B681A1D7B681A600B4A7B68E3
:1024D0001B68191C0C4BD150084A08490B4BC958B2
:1024E0000B4B19407868A423C3580B43802109067D
:1024F0001943064BD150BD4602B080BD00400C4090
:1025000010CB03001800086014CB030000CB0300BD
:10251000FFFFFF4380B584B000AF021CFB1D1A70A3
:102520000023BB60FB1D1B785BB2002B0BDA1A4B40
:102530001968FB1D1A780F231A4080238A18D318B4
:102540001B79FB600AE0144B1968FB1D1A780F23F6
:102550001A4090238A18D3181B79FB60FB68002B64
:102560000BD00D4B1968FA68131C9B009B18DB00FD
:102570003033CB180433BB6008E0FB1D1A780F23FF
:10258000134003D1044B1B683433BB60BB68181C79
:10259000BD4604B080BDC0460400002080B584B0B4
:1025A00000AF78607B681B78002B17D07B681B69B5
:1025B000FB603B1C0A337A6892891A803B1C0A3301
:1025C0001B88FA68934200D9131C0B4A1168A42295
:1025D0008A58181C111CFFF721FF0AE07B689B89B1
:1025E0001A1C054B1968A423CB58101C191CFFF7A3
:1025F00039FFBD4604B080BD0400002090B585B011
:1026000000AF78607B683433BB60BA682023D35C4A
:10261000042B00D932E19A009A4BD3181B689F46CD
:10262000BB6800225A70BB6800221A61964B0022D8
:102630001A607B68181CFFF7A7F9031CFB60FB6896
:10264000013313D1BB6801221A70BB68181CFFF755
:102650007FFEBB6800221A70BB68181CFFF778FE6B
:102660008A4B1B68181CFFF721FF46E0BA6820233D
:10267000D35C022B04D0BA682023D35C012B03D196
:10268000BB685A6A804B1A60BA682023D35C022B5D
:1026900033D0BB681B69002B19D0BB681A697B68F3
:1026A0001B689979DB791B020B439BB29A4224D2B7
:1026B000BB681A69BB689B89101C191C05F072F86D
:1026C0000B1C002B19D1BB6801225A70D6E0704B4D
:1026D00000221A60BB685B78002B0ED1BA682023F9
:1026E0000021D1540020002100220023FEF7FAFD32
:1026F000BA6820230321D154C0E0BFE0BB681B6946
:10270000002B07D0BB6800221A70BB68181CFFF7AB
:1027100045FF41E00023FB605B4B1B68002B0CD0A6
:10272000594B1C68BB685B690020191C0022A0473C
:10273000031CFB60544B00221A60FB68002B17D06F
:10274000BB6801221A70BB68181CFFF701FEBB684A
:1027500000221A70BB68181CFFF7FAFD4B4B1B6870
:10276000181CFFF7A3FEBA6820230021D15413E000
:10277000464B1B68181CFFF799FEBA6820230021FE
:10278000D1540020002100220023FEF7ABFDBA68DF
:1027900020230321D15471E070E0BB681B69002B3A
:1027A00007D0BB6801221A70BB68181CFFF7F6FE41
:1027B0002CE0BB685B78012B11D1BB685A69344BA4
:1027C0001A60BA6820230021D15400200021002281
:1027D0000023FEF787FDBB6802225A7016E0BB6833
:1027E0005B78002B03D1BB685A69294B1A60BA6821
:1027F00020230021D1540020002100220023FEF7D5
:1028000089FCBA6820230421D15437E036E0214AFC
:10281000214BD358002B04DB1C4B1B68181CFFF703
:1028200045FE194B1B68002B07D0174B1C68184B33
:102830001B680020191C0022A047BA682023002131
:10284000D154BB6800221A7018E0104B1B68181C8A
:10285000FFF72CFE0C4B1B68002B07D00A4B1C68A3
:102860000B4B1B680020191C0022A047BA682023CC
:102870000021D154BB6800221A70C046BD4605B085
:1028800090BDC046A09300008809002004000020ED
:102890008C09002000400C4000CB030080B584B0C0
:1028A00000AF021CFB1D1A70FB1D1B78181CFFF7E4
:1028B00031FE031CFB60FA682023D35C012B04D09B
:1028C000FA682023D35C022B16D1FA68202300215A
:1028D000D154FB685B6A002B0DD0FB685B6ABB6060
:1028E000FB6800225A62FB685969FB681A69BB6879
:1028F0000020984707E006E0044A7023FF33101CCD
:10290000191C01F0FDF9BD4604B080BDB493000070
:1029100080B500AF72B6074B1B68013304D0054B7E
:102920001B685A1C034B1A60024B1B68181CBD46DF
:1029300080BDC0460C0A002080B582B000AF0B4BB2
:102940001B68002B0DD0094B1B685A1E074B1A60E1
:10295000064B1B687B607B68002B00D162B67B68EE
:1029600000E00023181CBD4602B080BD0C0A002008
:1029700080B582B000AF021CFB1D1A70084AFB1D17
:102980001B789B0120211943064BD150C046044AB5
:10299000044BD25820231340F9D1BD4602B080BD6C
:1029A00000400C4010C0030080B582B000AF074A61
:1029B000074BD3587B60054A064BD2587B681340BF
:1029C0007B607B68181CBD4602B080BD00400C4097
:1029D00014C0030018C0030080B584B000AF786055
:1029E0000D4A0E4B0021D1500B4A0D4B012149429B
:1029F000D1500C4BFB607B681B6B1B69002B03D019
:102A0000FB6808221343FB60034A044BF968D1506A
:102A1000BD4604B080BDC04600400C4018C0030055
:102A200014C0030000380C8080B500AF054A064B87
:102A30000021D150034A044BC0214901D150BD4669
:102A400080BDC04600400C4018C0030080B582B075
:102A500000AF78600D4A0D490D4BC9580D4B0B4026
:102A60008021490019430A4BD150084A07490A4BB3
:102A7000C9580A4B19407B680B4384210906194346
:102A8000054BD150BD4602B080BDC04600400C4051
:102A900004C803007FF8FFFF00CB0300FFFFFF43E4
:102AA00080B582B000AF084A084BD3587B60064A15
:102AB000074BD2587B6813407B607B681B041B0C60
:102AC000181CBD4602B080BD00400C4018C8030071
:102AD0001CC8030080B582B000AF084A084BD35829
:102AE0007B60064A074BD2587B6813407B607B684B
:102AF0001B0C181CBD4602B080BDC04600400C40F7
:102B000018C803001CC8030080B584B000AF78600B
:102B1000084A094BD358FB607B689B785B01074AE6
:102B20009B189B68BB60BB68FA681340181CBD46C5
:102B300004B080BD00400C4010C8030000091040E4
:102B400080B584B000AF78607B689B785B01094AF0
:102B50009B189B68FB60084A084BD35880221202DE
:102B60001A43FB681340FB60FB68181CBD4604B0A9
:102B700080BDC046000B104000400C4014C803004C
:102B800080B582B000AF78607A6834230021D154D8
:102B90000F4A104B1049D1507B681A1D7B681A6090
:102BA0000B4A7B681B68191C0C4BD150084A08491A
:102BB0000B4BC9580B4B19407868A423C3580B43DF
:102BC000802109061943064BD150BD4602B080BD95
:102BD00000400C4010CB03001800086014CB030029
:102BE00000CB0300FFFFFF4380B584B000AF021CA1
:102BF000FB1D1A700023BB60FB1D1B785BB2002B12
:102C00000BDA1A4B1968FB1D1A780F231A40802320
:102C10008A18D3181B79FB600AE0144B1968FB1D56
:102C20001A780F231A4090238A18D3181B79FB6057
:102C3000FB68002B0BD00D4B1968FA68131C9B0026
:102C40009B18DB003033CB180433BB6008E0FB1D5E
:102C50001A780F23134003D1044B1B683433BB6035
:102C6000BB68181CBD4604B080BDC04604000020EF
:102C700080B582B000AFFB1C00221A70FFF748FE3F
:102C8000654B1B78DBB2002B18D0644BDA6A8023CB
:102C90009B03134008D1614B614A116814220A401A
:102CA0008021C9000A431A625C4B80225A62C046E6
:102CB0005A4BDA6A8023DB021340F9D0594B9B68E8
:102CC000002B45D0574B1A6880239B0213403FD0FE
:102CD000544B9A680123134014D0524B01221A61BD
:102CE000504B5A68012313400CD0FB1C01221A7070
:102CF00000F020FC031C002B01D0FFF795FE022002
:102D0000FEF7ACFA474B9A680223134020D0454B9C
:102D100002221A61434B5A680123134018D1FB1C4D
:102D200001221A703C4B1B78DBB201225340DBB20C
:102D3000002B08D03B4A3C4B0021D150394A3B4B39
:102D400001214942D15000F0B5FA0020FEF786FA81
:102D5000FFF72AFE031C7B607B68002B02D1FFF784
:102D6000EBFD56E07A6880231B04134005D000F089
:102D700061F97A682E4B13407B607B68002B05DA83
:102D800000F062FA7B685B005B087B607A688023F6
:102D90001B01134005D000F021FA7A68254B13403F
:102DA0007B607A680823134005D000F077F97B68D0
:102DB000082293437B607A6880239B01134005D0EF
:102DC00000F042F87A681C4B13407B607A688023DD
:102DD0005B01134005D000F087F97A68174B134068
:102DE0007B607A688023DB02134005D000F046F850
:102DF0007A68134B13407B607A6880231B0313406F
:102E000005D000F0D9F87A680E4B13407B60FFF7CD
:102E100093FDBD4602B080BD9009002000800C40AB
:102E2000D009002000400C4018C0030014C003006B
:102E3000FFFF7FFFFFF7FFFFFFDFFFFFFFEFFFFF5A
:102E4000FFFFFBFFFFFFF7FF80B500AF00F072FB55
:102E5000094B1A68A423D358181CFFF7F7FD064B3B
:102E60001A6854230021D154034B1B68181CFFF728
:102E7000B3FDBD4680BDC0460400002080B584B0CF
:102E800000AFFFF70DFE021C3B1C08331A80002325
:102E9000FB603B1C0A3301221A8081E03B1C083393
:102EA0003A1C0A321B88128813409BB2002B6DD04B
:102EB000FB68DBB2802252421343DBB2DBB2181C48
:102EC000FFF792FE031C7B607B68181CFFF71CFE5B
:102ED000031C3B603A680123134057D0FB685B0139
:102EE00033495B1801229A60FB68002B24D17B6870
:102EF0001A697B689B899A420ED97B681A697B683C
:102F00009B89D21A7B681A617B685A697B689B89A6
:102F1000D2187B685A6109E07B685A697B681B6933
:102F2000D2187B685A617B6800221A61214B1B68AA
:102F3000181CFFF763FB29E07B681A69FB685B01DB
:102F40001B495B181B695B035B0BD21A7B685A61D8
:102F50007B681A697B685B69D21A7B681A617B6837
:102F6000DB78181CFFF79AFC7B689B785B01104AA2
:102F70009B189A6880239B01134007D07B689B783D
:102F80005B010B495B18802292019A60FB68013358
:102F9000FB603A1C0A323B1C0A331B88DB18138087
:102FA000FB68032B00DC79E7BD4604B080BDC0465A
:102FB000000910400400002080B584B000AFFFF786
:102FC00089FD021C3B1C08331A800023FB603B1C5C
:102FD0000A3301221A8026E03B1C08333A1C0A32CD
:102FE0001B88128813409BB2002B12D0FB68DBB207
:102FF000181CFFF7F9FD031C7B607B68181CFFF7AA
:103000009FFD031C3B603A687B68101C191C00F094
:10301000EFFBFB680133FB603A1C0A323B1C0A33AE
:103020001B88DB181380FB68032BD5DDBD4604B07D
:1030300080BDC04680B500AF154B1B78DBB20122C6
:103040005340DBB2002B04D0124A134B80210904F9
:10305000D15000F06FFA031C002B04D00D4A0E4B28
:1030600080210904D1500B4B5A680123134001D130
:1030700000F020F9074B5A680123134003D00320C6
:10308000FEF7ECF802E00020FEF7E8F8BD4680BD50
:103090009009002000400C4014C0030080B500AF30
:1030A0000C4A0D4B0821D1500C4B1B681B6B1B6944
:1030B000002B0CD0094B1B681B6B1B690549084A88
:1030C0008958084A0A40120A92B2101C9847BD4615
:1030D00080BDC04600400C4014C003000400002026
:1030E00008C8030000FF3F0080B582B000AF304A3F
:1030F0002F49304BC958304B19402E4BD15000202E
:10310000FFF736FC00237B6009E07B685B012B4AFC
:103110009B18012252429A607B6801337B607B6876
:10312000032BF2DD00237B6009E07B685B01244A0E
:103130009B18012252429A607B6801337B607B6856
:10314000032BF2DD1A4A1F4B1F49D150184A1F4B5F
:103150002921D150164A1E4B0121D150144A14493D
:10316000F2239B02C9581B4B1940F2239B02D150FA
:10317000194B1B68181CFFF703FD174B1B68181C25
:10318000FFF72AFC144B1B681B6B1B68002B04D039
:10319000114B1B681B6B1B6898470320FEF75EF8FA
:1031A0000B235B42181C01F0BFF9BD4602B080BD85
:1031B00000400C4004C803007EF8FFFF00091040E7
:1031C000000B10401CC803000100010014C80300DC
:1031D00010C803000FF8FFFF0400002090B583B073
:1031E00000AF174A174B80210901D1500A235B42D7
:1031F000181C01F099F9FDF70FFD031C002B02D1FB
:103200000220FEF72BF8FC1DFDF706FD031C2370C2
:10321000FB1D1B78022B0BD0FB1D1B78032B07D04B
:10322000FB1D1B78042B03D0FB1D1B78052B04D141
:1032300000F040F80620FEF711F8BD4603B090BD3F
:1032400000400C4014C0030080B500AF154B1B7844
:10325000DBB201225340DBB2002B04D0124A134BE5
:1032600080210906D15000F065F9031C002B10D015
:103270000D4A0E4B80210906D1500D4B1B68181CBE
:10328000FFF77EFC0A4B1A68A423D358181CFFF7DB
:10329000DDFB074B1A682123D35C181CFDF7DEFF0A
:1032A000BD4680BD9009002000400C4014C00300C2
:1032B0000400002080B584B000AF7B4B1B78DBB2EC
:1032C00001225340DBB2002B00D1E8E0764B012213
:1032D0001A70764A764BD258764B1A60734A764B00
:1032E000D258764B1A60714A754BD258754B1A609A
:1032F0006E4A754BD258754B1A606C4A744BD25853
:10330000744B1A60694AF2239B02D258724B1A60BE
:10331000664A724BD258724B1A60644A714BD2584B
:10332000714B1A60614A714BD258714B1A605F4AF7
:10333000704BD258704B1A605C4A704BD258704B2D
:103340001A600023FB604CE06E4B1968FB685A1C46
:10335000131C9B009B18DB003033CB180433BB607D
:10336000BB689B787B60BB681B78002B1BD07B689D
:103370005B01654A9B181968644BFA689200D1504A
:103380007B685B01604A9B181969614BFA6892007F
:10339000D1507B685B015C4A9B1859695D4BFA68A8
:1033A0009200D1501AE07B685B015B4A9B18196858
:1033B000564BFA689200D1507B685B01564A9B18C5
:1033C0001969534BFA689200D1507B685B01524AED
:1033D0009B1859694F4BFA689200D150FB68013332
:1033E000FB60FB68002BAFDD0023FB600BE0FB689C
:1033F0009B004A4A9B181968494BFA689200D150C1
:10340000FB680133FB60FB68002BF0DD274A27498E
:10341000F2239B02CB589B019B098021490519434C
:10342000F2239B02D150214A2049F2239B02CB5820
:1034300008211943F2239B02D1501C4A1C4B3949E5
:10344000D1501A4A19492D4BCB58042119432B4B03
:10345000D150164A1549294BCB5808211943274BFF
:10346000D150124A1149254BCB5801211943234B06
:10347000D1502D4BDA6A2D4B1A602D4B2C4A126914
:1034800006210A431A61284B40225A62C046264B45
:10349000DA6A80235B021340F9D0012300E00023A5
:1034A000181CBD4604B080BD9009002000400C40AF
:1034B00018C003009409002008C0030098090020E8
:1034C0000CC003009C09002024C00300A0090020B8
:1034D00028C00300A4090020A809002004C8030094
:1034E000AC0900201CC80300B009002010C803006C
:1034F000B409002014C80300B809002000CE03005E
:10350000BC0900200400002000091040C009002070
:10351000C4090020C8090020000B1040040110401D
:10352000CC0900200000808000800C40D0090020E1
:1035300000ED00E080B584B000AF884B1B78DBB2B3
:10354000002B00D105E1854B00221A70844B1A68CC
:103550000123134002D1834B02221A62824A82491C
:10356000824BCB580121181C8843011C7F4BD15042
:103570007D4A7D497D4BCB580C21181C8843011C8A
:103580007A4BD150784A7A4BD2587A4B13400BD1B0
:10359000754A794B1B6801211943784BD150724A07
:1035A000754B1968754BD1506F4A754B1968754B3F
:1035B000D1506D4A744B1968F2239B02D1500023FD
:1035C000FB600BE0FB689B00704A9B18704AF9682F
:1035D00089008A581A60FB680133FB60FB68002B86
:1035E000F0DD0023FB6073E06A4B1968FB685A1C2E
:1035F000131C9B009B18DB003033CB1804337B601B
:103600007B689B783B60644BFA689200D258634BAE
:103610001340BB60604BFA689200D25880235B0273
:10362000134005D0BB68802292051343BB6004E0C1
:10363000BB68802252051343BB60574BFA68920067
:10364000D25880239B02134005D0BB68802212050C
:103650001343BB6004E0BB688022D2041343BB6009
:103660007B681B78002B18D03B685B014C481B180B
:10367000BA681A603B685B01494A9B18494AF96875
:1036800089008A581A613B685B0145481B18464A05
:10369000F96889008A585A6117E03B685B01434A20
:1036A0009B18BA681A603B685B0140481B183D4A8A
:1036B000F96889008A581A613B685B013B4A9B188C
:1036C000394AF96889008A585A61FB680133FB60FE
:1036D000FB68002B88DD244A354B1968234BD150F9
:1036E000214A344B1968344BD1501F4A334B196867
:1036F000334BD1501C4A334B1968334BD1501A4AC3
:103700001D4B19681D4BD150174A304B1968304B6F
:10371000D150154A2F4B19682F4BD150124A2F4BBD
:1037200019682F4BD150104A2E4B19682E4BD1508F
:103730000D4A0D49114BCB588021090119430F4BFC
:10374000D1502A4B294A126906218A431A61012362
:1037500000E00023181CBD4604B080BD9009002085
:10376000D009002000800C4000400C4000CE030037
:1037700014C0030000008080AC09002004C80300CE
:103780009C0900200CC00300A8090020040110407F
:10379000CC09002004000020C0090020FFFFFFC367
:1037A00000091040C4090020C8090020000B104087
:1037B000BC090020B809002014C80300B409002087
:1037C00010C80300B00900201CC80300A409002091
:1037D00028C00300A009002024C00300980900208D
:1037E00008C003009409002018C0030000ED00E0A9
:1037F00080B586B000AF786039603B689B78002B5D
:1038000000D0CFE07A680123134000D19CE0794AD0
:10381000794B0121D150774A784BD358FB603A68F5
:103820002023D35C002B5BD17A6880231B021340DA
:1038300004D0704A704B80210902D1503B68181C9B
:10384000FFF77EF9031C7B606A4A6C4BD358FB6020
:103850007A680823134032D0664A674B0821D1505A
:103860007B68082293437B60FA68C023DB05134022
:103870005B0F7B617B69032B01D102237B61604B72
:103880001B685F4A11687A690220821AD2008A187E
:1038900004321A605A4B1B68181CFEF7AFFE3A68D8
:1038A0002023D35C032B04D03A682023D35C012B64
:1038B0004AD1534B1B68181CFFF762F944E03B6880
:1038C000181CFFF73DF9031C7B607A68082313403E
:1038D00000D0C1E74A4B1B68181CFFF751F933E0D1
:1038E0003A682023D35C022B24D13B681A693B68D9
:1038F0009B899A420ED93B681A693B689B89D21A08
:103900003B681A613B685A693B689B89D2183B68DF
:103910005A6109E03B685A693B681B69D2183B68E9
:103920005A613B6800221A61354B1B68181CFEF770
:1039300065FE09E03A682023D35C042B04D1304BA8
:103940001B68181CFEF75AFE7A682023134003D028
:10395000284A294B2021D1507A680823134045D0AA
:10396000244A254B0821D150224A244BD258C02347
:10397000DB0513405B0F3B613B69032B01D1022345
:103980003B611F4B1B681E4A11683A690220821A6C
:10399000D2008A1804321A60194B1B68181CFEF7F3
:1039A0002DFE23E07A68012313401FD03B689B78EB
:1039B0005B0114495B1801229A603B689A693B6875
:1039C0009B785B010F495B181B695B035B0BD21A89
:1039D0003B685A613B681A693B685B69D21A3B686D
:1039E0001A613B68DB78181CFEF758FFBD4606B02D
:1039F00080BDC04600400C4008CB030010CB030044
:103A000004000020000B104080B582B000AF021C03
:103A1000FB1D1A70084AFB1D1B78191C1F230B4045
:103A20000121081C9840031C191CC0235B00D150C5
:103A3000BD4602B080BDC04600E100E080B500AFE9
:103A400072B6074B1B68013304D0054B1B685A1C28
:103A5000034B1A60024B1B68181CBD4680BDC04654
:103A60000C0A002080B582B000AF0B4B1B68002B06
:103A70000DD0094B1B685A1E074B1A60064B1B687A
:103A80007B607B68002B00D162B67B6800E000237E
:103A9000181CBD4602B080BD0C0A002080B500AFE6
:103AA000064A074B1021D150C046044A044BD25855
:103AB00010231340F9D1BD4680BDC04600400C40E4
:103AC00010C0030080B582B000AF021CFB1D1A704D
:103AD000084AFB1D1B789B0120211943064BD1503E
:103AE000C046044A044BD25820231340F9D1BD46A6
:103AF00002B080BD00400C4010C0030080B584B00F
:103B000000AF78607B681B78002B0AD07B689B78BD
:103B10005B010F4A9B1800221A607B68DB89FB60FF
:103B20000AE07B689B785B010A4A9B1800221A60B6
:103B30007B68DB891B04FB60074A0749074BCB58AE
:103B4000F968C9431940054BD150BD4604B080BD4A
:103B500000091040000B104000400C401CC803003E
:103B600080B584B000AF7860084A094BD358FB6039
:103B70007B689B785B01074A9B189B68BB60BB68AE
:103B8000FA681340181CBD4604B080BD00400C40CC
:103B900010C803000009104080B584B000AF786001
:103BA0007B689B785B01094A9B189B68FB60084A0D
:103BB000084BD358802212021A43FB681340FB6063
:103BC000FB68181CBD4604B080BDC046000B104009
:103BD00000400C4014C8030080B582B000AF78608C
:103BE0007B681B78002B11D07B689B785B011A499E
:103BF0005B187A6892785201174952181168174A6F
:103C00000A409021C9050A431A6021E07B689B782D
:103C10005B01134A9B187A68927852011049521836
:103C20001168104A0A40802109060A431A607B681D
:103C30009B785B010A4A9B187A689278520108497E
:103C400052181168054A0A409021C9050A431A60B2
:103C5000BD4602B080BDC04600091040FFFFFF8393
:103C6000000B1040FFFFFF4380B584B000AF021C83
:103C7000FB1D1A700023BB60FB1D1B785BB2002B81
:103C80000BDA1A4B1968FB1D1A780F231A40802390
:103C90008A18D3181B79FB600AE0144B1968FB1DC6
:103CA0001A780F231A4090238A18D3181B79FB60C7
:103CB000FB68002B0BD00D4B1968FA68131C9B0096
:103CC0009B18DB003033CB180433BB6008E0FB1DCE
:103CD0001A780F23134003D1044B1B683433BB60A5
:103CE000BB68181CBD4604B080BDC046040000205F
:103CF00080B582B000AF7860BD4602B080BDC046DE
:103D000080B582B000AF786039603B68181CFFF75F
:103D1000EFFFFEE780B500AF164A1649164BCB58A9
:103D20000121181C8843011C134BD150114A114921
:103D3000114BCB580C21181C8843011C0E4BD15041
:103D40000C4A0C490D4BCB58012119430B4BD15058
:103D5000C046084A094BD25801231340F9D101202B
:103D600000F08AFDC046034A044BD358002BFADA10
:103D7000BD4680BD00400C4000CE030010C00300D3
:103D800080B500AF044A0449044BC958044B19409C
:103D9000024BD150BD4680BD00400C4004C803001A
:103DA0007DF8FFFF80B58CB000AF78603960B54B0F
:103DB00001229A61FFF7AEFFFFF754FE322000F0B8
:103DC0001BFDFFF73BFEAF4AAE49F2239B02CB58E7
:103DD00003211943F2239B02D150AA4AA949F22395
:103DE0009B02CB5804211943F2239B02D150A54AD0
:103DF000A449F2239B02C958A34B1940F2239B020A
:103E0000D150A04A9F49A14BCB583E218B43222140
:103E100019439E4BD1509B4A9A499D4BC9589D4B83
:103E20000B40802109021943994BD1507B687B627A
:103E300010233B627A6A3B6A934200D2131C3A1CFD
:103E40002C3213808F4A3B1C2C331B889B05990D09
:103E5000914BD150914B1B681B6DFB611023BB61D3
:103E6000FA69BB69934200D2131C3A1C2A321380B0
:103E7000844A3B1C2A331B881B04191C3B1C2C3313
:103E80001B889B059B0D1943854BD1503B1C2E3342
:103E900001221A7055E03B1C2F3301221A7044E0B6
:103EA0003B1C2F331B78802252421343DBB2181C79
:103EB000FFF7DAFE031C7B617B69002B2ED07B6948
:103EC0005B793A1C2E3212789A4227D13B1C2C3354
:103ED000391C2C313A1C2A32098812888A181A8017
:103EE0007B69DB693B611023FB603A69FB689342A5
:103EF00000D2131C3A1C2A3213807B695B799B0029
:103F0000684A9B183A1C2A3212881204111C3A1C67
:103F10002C3212885205520D0A431A603B1C2F3373
:103F20001A783B1C2F3301321A703B1C2F331B783D
:103F3000032BB5D93B1C2E331A783B1C2E33013290
:103F40001A703B1C2E331B78032BA4D97A683B686C
:103F5000D218C0235B009A4201D9FC238DE03B1CA0
:103F60002C331A88C0235B009A4201D9FC2384E0D9
:103F70001020FFF7A7FDFFF791FD424A4A4B0021B1
:103F8000D150404A494B0021D1503E4A484B002174
:103F9000D1503C4A474B0021D1503B1C2F330022CB
:103FA0001A701FE03B1C2F331B785B01424A9B18A1
:103FB00000221A603B1C2F331B785B013E4A9B1882
:103FC00000221A613B1C2F331B785B013A4A9B1875
:103FD000012252429A603B1C2F331A783B1C2F332C
:103FE00001321A703B1C2F331B78032BDAD93B1C90
:103FF0002F3300221A701FE03B1C2F331B785B010C
:104000002E4A9B1800221A603B1C2F331B785B0141
:104010002A4A9B1800221A613B1C2F331B785B0134
:10402000264A9B18012252429A603B1C2F331A7871
:104030003B1C2F3301321A703B1C2F331B78032B90
:10404000DAD9FCF7DFFD0F4B0E4A12688021890296
:104050000A431A600B4B03221A610A4B03225A616E
:10406000084B5A680123134003D0064B0122DA6043
:1040700002E0044B0222DA6000235BB2181CBD464A
:104080000CB080BD00400C40FFE7FFFF08C00300FC
:1040900004C803007F78FFFF24C003000400002051
:1040A00028C003000001104010C8030014C803001A
:1040B0001CC8030034C8030000091040000B104066
:1040C00080B586B000AF3B1C0A3300221A803B1C2F
:1040D000083300221A8001237B6145E0AB4B19684D
:1040E0007A69131C9B009B18DB003033CB18043318
:1040F0007B607A682023D35C002B32D07B681B78EE
:10410000002B17D07B68D9893B1C0A333A1C0A3232
:1041100012880A431A807B689B785B019C481B18B5
:104120007A68927852019A495218926842210A4359
:104130009A6016E07B68D9893B1C08333A1C083228
:1041400012880A431A807B689B785B01914A9B180E
:104150007A68927852018F481218926802210A43B5
:104160009A607B6901337B617B69012BB6DD3B1C67
:104170000A331B88002B3BD0874A8749874BCB5893
:1041800042211943854BD1503B1C0E333A1C0A3255
:1041900012881A8001237B6127E07C4B19687A69B9
:1041A000131C9B009B18DB003033CB1804337B605F
:1041B0007B68DB893A1C0E32128813409BB2002BBD
:1041C00010D07B689B785B0171495B187A689278A4
:1041D00052016F4812181168714A0A40802109057E
:1041E0000A431A607B6901337B617B69012BD4DD53
:1041F0003B1C08331B88002B3ED0674A6649694B3D
:10420000C958694B0B408021C9001943654BD150F7
:10421000614A6149654BCB5880211943634BD150AA
:104220005D4A5D495F4BC9585F4B0B408021890057
:1042300019435C4BD1505E4B3B6102E03B69013B53
:104240003B61554A5B4BD2588023134002D13B69F6
:10425000002BF3D1504A5049544BCB588021181CA5
:104260008843011C514BD1504B4A4B49524BCB58C0
:1042700002211943504BD1503B1C0A331B88002BA1
:1042800055D03B1C0E333A1C0A3212881A80484B18
:104290003B6101237B6132E03C4B19687A69131C56
:1042A0009B009B18DB003033CB1804337B607B68AA
:1042B000DB893A1C0E32128813409BB2002B1BD0B4
:1042C0007B68181CFFF74CFC021C4023134013D0E2
:1042D0007B689B785B012E495B1840229A607B6863
:1042E000DB899BB2DB439BB23A1C0E32128813402F
:1042F0009AB23B1C0E331A807B6901337B617B6968
:10430000012BC9DD3B69013B3B613B1C0E331B8824
:10431000002B02D03B69002BBBD11F4A1E491F4B0B
:10432000CB584021181C8843011C1C4BD150012341
:104330007B6116E0154B19687A69131C9B009B186A
:10434000DB003033CB1804337B607A682023D35CE6
:10435000002B03D07B68181CFFF73EFC7B69013300
:104360007B617B69012BE5DD3B1C0E333A1C0A3275
:1043700012881A803B1C0C333A1C083212881A80AF
:104380000B4B3B6101237B617BE0C04604000020B6
:1043900000091040000B104000400C4010C8030002
:1043A000FFFFFFC304C803007FF8FFFF18C003002E
:1043B000983A000014C0030014C80300524B196857
:1043C0007A69131C9B009B18DB003033CB18043335
:1043D0007B607B681B78002B24D07B68DB893A1CD0
:1043E0000E32128813409BB2002B1BD07B68181C26
:1043F000FFF7B6FB021C0223134013D07B689B78A7
:104400005B0142495B1802229A607B68DB899BB2A0
:10441000DB439BB23A1C0E32128813409AB23B1C0B
:104420000E331A807B681B7801225340DBB2002BCD
:1044300024D07B68DB893A1C0C32128813409BB273
:10444000002B1BD07B68181CFFF7A6FB021C022365
:10445000134013D07B689B785B012D4A9B18022286
:104460009A607B68DB899BB2DB439BB23A1C0C32BF
:10447000128813409AB23B1C0C331A807B690133BB
:104480007B617B69012B99DD3B69013B3B613B1CF7
:104490000E331B88002B04D13B1C0C331B88002BD4
:1044A00003D03B69002B00D06CE73B1C0A331B8810
:1044B000002B0CD0174A1749174BCB580221181C58
:1044C0008843011C144BD1501020FFF7FBFA3B1C12
:1044D00008331B88002B14D00E4A0E490F4BCB58C3
:1044E0000221181C8843011C0C4BD150094A094970
:1044F0000B4BC9580B4B0B408021C9001943084B8B
:10450000D150BD4606B080BD040000200009104017
:10451000000B104000400C4010C8030014C80300FA
:1045200004C803007FF8FFFF80B586B000AF021C0F
:10453000FB1D1A70FB1D1B785BB21A1C0B3201D0DD
:10454000FFF7BEFD01237B6139E0214B19687A69D1
:10455000131C9B009B18DB003033CB1804333B61EA
:104560003A692023D35C002B26D03A69202300210E
:10457000D1543B695B6A002B1ED03B695B6AFB60D0
:104580003B6900225A62124B1A682223D35C052B26
:1045900009D10F4B1A682023D35C042B03D13B694C
:1045A000181CFFF7ABFA3B6959693B691A69FB1D97
:1045B00000201856FB6898477B6901337B617B6953
:1045C000012BC2DD1320FFF71FFABD4606B080BDE8
:1045D0000400002080B582B000AF021CFB1D1A70E1
:1045E000064BFA1D1278111C1F220A400121081CDB
:1045F0009040021C1A60BD4602B080BD00E100E0A0
:1046000080B582B000AF021CFB1D1A70084AFB1D6A
:104610001B78191C1F230B400121081C9840031C08
:10462000191CC0235B00D150BD4602B080BDC046FE
:1046300000E100E080B500AF72B6074B1B680133A4
:1046400004D0054B1B685A1C034B1A60024B1B68B5
:10465000181CBD4680BDC0460C0A002080B582B043
:1046600000AF0B4B1B68002B0DD0094B1B685A1E6B
:10467000074B1A60064B1B687B607B68002B00D1E0
:1046800062B67B6800E00023181CBD4602B080BD06
:104690000C0A002080B582B000AF786039607A687B
:1046A0003B6803331B01D3185B68181CBD4602B07E
:1046B00080BDC04680B584B000AFF860B9607A6054
:1046C000FA68BB6803331B01D3187A685A60BD4689
:1046D00004B080BD80B582B000AF78607B685B6A53
:1046E000181CBD4602B080BD80B582B000AF7860B6
:1046F00039607B683A689A61BD4602B080BDC046A9
:1047000080B582B000AF786039607B68DA683B685A
:104710001A437B68DA60BD4602B080BD80B582B0C6
:1047200000AF78607B681B69181CBD4602B080BD75
:1047300080B582B000AF786039607B683A68DA6132
:10474000BD4602B080BDC04680B582B000AF114BFF
:10475000181CFFF7E3FF031C7B607A6810231340EB
:1047600015D00C4B181C1021FFF7BEFF094B181C6D
:104770000021FFF78FFF021C074B1B68D318054A67
:10478000101C00211A1CFFF795FF00F0BDFABD4672
:1047900002B080BD00000140F809002080B584B05F
:1047A00000AF021CBB1D1A80BB1D1B88002B1DD037
:1047B000104B181CFFF78EFF021C3B1C0E331A8097
:1047C0000C4B181CFFF786FF031C9AB23B1C0C33E2
:1047D0001A803B1C0C331B889AB23B1C0E331B887F
:1047E000D31A9BB2BA1D12889A42E9D8BD4604B0CA
:1047F00080BDC0460000014090B585B000AF786034
:104800001B480068011C0020021C7868031C002063
:10481000041C081C111C1A1C231C03F02FF8031C79
:104820000C1CBB60FC600BE0124B181CFFF7B6FFC2
:10483000B968FA680D4C0C4B5B185441BB60FC60C6
:10484000FB68002BF0D1FB68002B03D1BA68094B41
:104850009A42E9D8BB68FC689BB2181CFFF79EFF20
:10486000BD4605B090BDC046E0B1FFFFFFFFFFFFB2
:10487000F8090020204E0000F0B58DB000AF78623E
:10488000394B1B68191C00231A1C7B6ABB6100236F
:10489000FB61081C111CBA69FB6902F0EFFF031CE5
:1048A0000C1CBB62FC62BB6AFA6A134338D17B6A98
:1048B000181C0A2102F032FF031C7B622B4B1B6881
:1048C0003B6100237B617B6ABB600023FB6038692E
:1048D0007969BA68FB6802F0D1FF031C0C1CBB624B
:1048E000FC62BB6AFA6A13431AD17B6A181C0A215C
:1048F00002F014FF031C7B621D4B1B683B6000230E
:104900007B607B6A1D1C00231E1C386879682A1C8A
:10491000331C02F0B3FF031C0C1CBB62FC620CE0F6
:104920000BE0144B181CFFF739FFB96AFA6A0D4CFB
:104930000B4B5B185441BB62FC62FB6A002BF0D14D
:10494000FB6A002B03D1BA6A0A4B9A42E9D8BB6AC8
:10495000FC6A9BB2181CFFF721FFBD460DB0F0BDED
:10496000A015FFFFFFFFFFFFFC090020000A002049
:10497000040A002060EA000080B588B000AF3B1C4C
:104980000C3301221A703B1C0C3300225A703B1C62
:104990000C3300229A703B1C0C330022DA703B1C53
:1049A0000C3300221A713B1C0C3300225A713B1C41
:1049B0000C3300229A713B1C0C330022DA713B1C31
:1049C0000C3300221A723B1C0C3300225A723B1C1F
:1049D0000C3300229A723B1C0C330022DA723B1C0F
:1049E0000C3300221A733B1C00221A703B1C00225D
:1049F0005A703B1C00229A703B1C0022DA703B1C50
:104A000000221A713B1C00225A713B1C00229A7131
:104A10003B1C0022DA713B1C00221A723B1C002254
:104A20005A723B1C00229A72384B181C00F040FD51
:104A3000031CFB61FB69F533FF33181CFA23990053
:104A400002F06CFE031C1A1C314B1A60FB69314AE0
:104A50009B18181C304902F061FE031C1A1C2F4BD6
:104A60001A60FB692E4A9B18181C2E4902F056FE4C
:104A7000031C1A1C2C4B1A60FB692C4A9B18181C2F
:104A80002B4902F04BFE031C1A1C2A4B1A603B1CDC
:104A900002229A71284B181C012100F0A5FC274A1C
:104AA000274B101C191CFFF743FE244A3B1C101C0B
:104AB00000211A1C01F0FEFA204A3B1C0C33101C8A
:104AC000191C01F073FA1D4A01235B42101C191CCA
:104AD000FFF70AFE194B181C1021FFF711FE174BA8
:104AE000181CFFF7F7FD021C094B1B68D318134A6B
:104AF000101C00211A1CFFF7DDFD0220FFF780FDCE
:104B00000220FFF767FDBD4608B080BD108102009E
:104B1000F809002020A1070040420F00FC090020F6
:104B200050C30000A0860100000A00208813000086
:104B300010270000040A00200002020000000140CB
:104B4000FFFF000080B588B000AFF860B9607A6000
:104B5000FFF770FD4749FA68082312018A18D31835
:104B60001B79002B03D0FB68181C00F087F8BB688A
:104B7000002B04D17B689847FFF770FD77E03D4933
:104B8000FA68082312018A18D31801221A71394AC7
:104B9000FB681B01D31808337A681A60354AFB6832
:104BA0001B01D318043300221A60334B1B68002BFF
:104BB0000BD1304BFA681201B968D150FB681A0169
:104BC0002C4BD2182C4B1A604FE02B4B1B68BB614F
:104BD000294B7B610023FB6144E0BB691A68FB69D8
:104BE000D218BB689A421DD9BA68FB69D11A214B09
:104BF000FA681201D1501F4AFB681B01D318043315
:104C0000BA691A60FB681A011A4BD2187B691A60DC
:104C1000BB691A68174BF9680901CB58D21ABB69EE
:104C20001A6022E0BB695B68002B10D1BA68FB698F
:104C3000D21ABB691B68D11A0E4BFA681201D15007
:104C4000FB681A010B4BD218BB695A600DE0BB69B7
:104C50001B68FA69D318FB61BB6904337B61BB69CC
:104C60005B68BB61BB69002BB7D1FFF7F7FCBD46A2
:104C700008B080BDD4090020F409002080B584B0BC
:104C800000AF7860FFF7D6FC1D4B1B68002B31D0BE
:104C90001B4B1B68FB601A4BBB601A497A680823E0
:104CA00012018A18D31800221A7120E07B681A01B9
:104CB000144BD218FB689A4213D1FB685B68002B37
:104CC0000AD0FB685B68FA68526811680D4A786818
:104CD000000182588A181A60FB685A68BB681A601B
:104CE00008E0FB680433BB60FB685B68FB60FB6843
:104CF000002BDBD1FFF7B2FCBD4604B080BDC0463F
:104D0000F4090020D409002080B582B000AFFFF77D
:104D100091FC164B1B68002B23D0144B1B681A68A0
:104D2000013A1A6019E0114B1B681B68002B13D164
:104D30000E4B1B689B687B600C4B1B6800221A7330
:104D40000A4B1B685A68094B1A607B68002B02D01B
:104D50007B68984701E000E003E0044B1B68002BF0
:104D6000E1D1FFF77BFCBD4602B080BDF409002015
:104D700080B584B000AF78600023FB6080231B0601
:104D8000BB6005E0FB680133FB60BB685B08BB6090
:104D90007B68BA681340F5D0FB68181CBD4604B0A8
:104DA00080BDC04680B586B000AFF860B9607A605B
:104DB000FB681B687B617A68012313407B60BB68DA
:104DC0000122101C9840031CDB437A691A40BB681F
:104DD0007968081C9840031C1A43FB681A60BD469A
:104DE00006B080BD80B584B000AF7860184BDA6B38
:104DF0003B1C0B33511E8A411A70154B154ADA635E
:104E0000134B5A6807231340FB607A68124B9A428F
:104E100006D87A68114B9A4202D90123FB6001E05F
:104E20000023FB600A4B0A4A52680721101C884382
:104E3000011CFA680A435A603B1C0B331B78002B99
:104E400002D0034B0022DA63BD4604B080BDC046E9
:104E500000000C40711B00000048E8010024F40031
:104E600080B582B000AF044B7B607B68181CFFF7F5
:104E7000B9FFBD4602B080BD40787D0180B584B0E9
:104E800000AF78607B68002B04D07A6880231B0217
:104E90009A4206D9094A1023FF33101C191CFEF749
:104EA0002FFF7B68181CFFF763FF031C1F22D31A18
:104EB000FB60FB68181CBD4604B080BDCC930000AD
:104EC00080B582B000AF78607B680122111C9940E8
:104ED0000B1C181CBD4602B080BDC04690B583B007
:104EE00000AFFC1C124B181C00F0A4FB031C237029
:104EF000FB1C1B78032B08D0082B0BD0022B0ED1E8
:104F000002F002FC031C7B600CE002F0EDFB031CD2
:104F10007B6007E002F070FB031C7B6002E0002373
:104F20007B60C0467B68181CBD4603B090BDC04680
:104F300005331C0080B582B000AF1A4B5A69E023DC
:104F4000DB00134080229200934216D08022920010
:104F5000934206D8002B16D08022520093420FD0E5
:104F600017E0C0229200934204D0E022D200934284
:104F70000CD00EE00C4B7B600EE00C4B7B600BE02A
:104F80000B4B7B6008E00B4B7B6005E00A4B7B60C2
:104F900002E000237B60C0467B68181CBD4602B05F
:104FA00080BDC04600800C4040420F00C0CF6A0068
:104FB000C0D8A700809FD500406F400190B583B056
:104FC00000AFFC1C184B181C00F034FB031C2370B2
:104FD000FB1C1B78072B13D0082B16D102F00CFBFF
:104FE000031C7B60114B1A68E0235B0213409B0B90
:104FF00001337868191C02F091FB031C7B600EE002
:10500000FFF798FF031C7B6009E0094ACB235B0094
:10501000101C191CFEF774FE00237B60C0467B68E1
:10502000181CBD4603B090BD0400180000800C4061
:10503000CC93000080B584B000AF78607B68002B13
:1050400009D07B68012B06D01F4AAE23FF33101C0A
:10505000191CFEF755FE1D4B9A6A7B685B00DA400F
:1050600003231340012B05D014D3022B07D0032BAD
:105070000AD021E002F038FB031CFB601FE002F0C5
:1050800043FB031CFB601AE002F098FA031C5B0868
:10509000FB6014E00D4B9A6A7B6804339B00111C83
:1050A000D9400B1C002B04D002F026FB031CFB6034
:1050B00005E00023FB6002E00023FB60C046FB68C4
:1050C000181CBD4604B080BDCC93000000800C408D
:1050D00080B582B000AF7860074B5A6D0123134052
:1050E00000D005E0C046044B1B6D7A681340FAD12E
:1050F000BD4602B080BDC04600800C4080B584B083
:1051000000AF78607B681A090F231340BB60BB684F
:10511000052B5BD8BB689A00334BD3181B689F469E
:10512000324B1A68E0235B0213409B0B0133FB6098
:1051300055E02E4B9A680F231340FB60FB68181C48
:10514000FFF7BEFE031CFB6049E0284B5A680F23A3
:105150001340FB60FB68181CFFF7B2FE031CFB60EA
:105160003DE07A68224B9A420BD1204B9A6E0F2376
:105170001340FB60FB68181CFFF7A2FE031CFB60DA
:1051800009E01C4ABD239B00101C191CFEF7B8FD4A
:105190000123FB60C04622E07A68174B9A420BD18C
:1051A000124B1A6F03231340FB60FB68181CFFF7B8
:1051B00087FE031CFB6008E00E4A104B101C191CF4
:1051C000FEF79EFD0123FB60C04608E0094A0C4B38
:1051D000101C191CFEF794FD0123FB60C046FB6800
:1051E000181CBD4604B080BDE093000000800C4058
:1051F00030040800CC930000400514000E030000AA
:105200001503000080B584B000AF786039607B681A
:105210001A090F231340FB60FB68052B00D9C2E07D
:10522000FB689A00654BD3181B689F463B68002BB0
:1052300002D03B68082B05D9614A624B101C191C2F
:10524000FEF75EFDFFF70CFE5F4B5F4A11685F4A99
:1052500011403A68013A92030A431A6002F0AEF92B
:10526000031CBB60BB68181CFFF7BCFDA2E03B68D9
:10527000002B04D03A6880239B009A4206D9504AFA
:10528000D4239B00101C191CFEF73AFD3B68181C28
:10529000FFF7F4FD031C3B604B4B4B4A92680F2118
:1052A000101C8843011C3A680A439A6082E03A68FD
:1052B00080239B009A4206D9414AD6239B00101CAA
:1052C000191CFEF71DFDFFF7CBFD3B68181CFFF70F
:1052D000D5FD031C3B603C4B3B4A52680F21101C20
:1052E0008843011C3A680A435A6002F067F9031CBC
:1052F000BB60BB68181CFFF775FD5BE07A68344B38
:105300009A421ED13A6880231B029A4205D92C4A40
:10531000304B101C191CFEF7F3FC0420FFF7D8FEDD
:105320003B68181CFFF7AAFD031C3B60264B264A6E
:10533000926E0F21101C8843011C3A680A439A663A
:1053400007E01F4AF0239B00101C191CFEF7D8FC35
:10535000C0462FE07A68204B9A421CD13B68082B4C
:1053600005D9174A1D4B101C191CFEF7C9FC40201B
:10537000FFF7AEFE3B68181CFFF780FD031C3B6087
:10538000114B114A126F0321101C8843011C3A680B
:105390000A431A6706E00A4A114B101C191CFEF753
:1053A000AFFCC04606E0064A0E4B101C191CFEF767
:1053B000A7FCC046BD4604B080BDC046F8930000BF
:1053C000CC9300003D03000000800C40FF3FFEFF37
:1053D000300408008603000040051400CA030000E2
:1053E000E7030000ED03000080B586B000AF7860F1
:1053F0000A1CFB1C1A7000233B617B681A0A0F23EE
:105400001340072B20D89A001F4BD3181B689F46C8
:105410001E4B7B611FE01E4B7B611CE01D4B7B61C3
:1054200019E01D4B7B6101233B6114E01B4B7B6149
:1054300010233B610FE01A4B7B610CE0194B7B6141
:1054400080235B003B6106E0174A184B101C191CB7
:10545000FEF756FC14E07B681A0B1F231340FB6019
:105460003B69002B03D03B69181CFFF731FEFB1C86
:105470001B787969FA68081C111C1A1CFFF792FC4A
:10548000BD4606B080BDC0461094000008800C40A8
:1054900044800C4040800C4058800C4060800C40A0
:1054A00078800C4064800C40CC93000047040000DE
:1054B00080B584B000AF78607A68F8239B0313400E
:1054C00080221203934200D16BE0802212039342A8
:1054D00013D88022920293423CD0802292029342BF
:1054E00002D8002B24D091E08022D20293424DD0EA
:1054F000C022D20293424ED088E0C022520393428F
:1055000000D174E0C0225203934208D89022520383
:10551000934256D0A0225203934258D076E0D02234
:105520005203934268D0E0225203934269D06DE067
:1055300002F062F8031CFB603B4B1A68E0235B023D
:1055400013409B0B0133F868191C02F0E7F8031CA9
:10555000FB6064E002F050F8031CFB60324B1A68F9
:10556000E0235B0213409B0B0133F868191C02F027
:10557000D5F8031CFB602C4B9B681A1C0F231340AF
:10558000FA68111CD9400B1CFB6048E002F016F8C9
:10559000031CFB6043E00020FFF74CFD031CFB6095
:1055A0003DE00020FFF746FD031CFB601E4B9B6E99
:1055B0001A1C0F231340FA68111CD9400B1CFB6006
:1055C0002DE00120FFF736FD031CFB6027E00120E2
:1055D000FFF730FD031CFB60134B1B6F1A1C0323EA
:1055E0001340FA68111CD9400B1CFB6017E0FFF751
:1055F000E5FC031CFB6012E0FFF79CFC031CFB6056
:105600000DE0FFF76BFC031CFB6008E0074A084B4A
:10561000101C191CFEF774FB0023FB60C046FB68DE
:10562000181CBD4604B080BD00800C40CC93000027
:10563000F104000080B586B000AF78603B1C1733E2
:1056400001221A70744B3B617A680F231340FB6090
:10565000FB68062B00D9CDE0FB689A006F4BD3188E
:105660001B689F466E4BDB6A3A69134080225201E9
:10567000934216D080225201934204D88022120114
:10568000934213D01CE080229201934204D08022E6
:10569000D20493420FD013E03B1C173302221A703E
:1056A00013E03B1C173303221A700EE03B1C173328
:1056B00004221A7009E03B1C17330A221A7004E016
:1056C0003B1C173305221A70C0469EE0544B9A6A61
:1056D00003231340022B08D0032B0BD0012B0ED138
:1056E0003B1C173303221A7015E03B1C17330222B0
:1056F0001A7010E03B1C173306221A700BE0484B5F
:105700009A6A80235B02134004D03B1C17330B22A0
:105710001A7000E0C04678E0414B9A6A0C231340AF
:10572000082B08D00C2B0BD0042B0ED13B1C1733AD
:1057300003221A7015E03B1C173302221A7010E086
:105740003B1C173306221A700BE0354B9A6A8023F4
:105750005B03134004D03B1C17330B221A7000E08C
:10576000C04652E02E4B9A6A30231340102B02D0D1
:10577000202B05D009E03B1C173303221A7009E0E7
:105780003B1C173302221A7004E03B1C1733012222
:105790001A70C04639E03B1C173307221A703B1CB5
:1057A000173307221A7030E01D4BDA6AE023DB0260
:1057B00013408022920293420CD08022D202934264
:1057C0000DD08022520293420ED13B1C173302228D
:1057D0001A700EE03B1C173303221A7009E03B1CC1
:1057E000173309221A7004E03B1C173301221A7088
:1057F000C0460AE00B4A0C4B101C191CFEF780FA3D
:105800003B1C173300221A70C0463B1C17331B7811
:10581000181CBD4606B080BD003C0004309400005A
:1058200000800C40CC930000D105000080B588B00A
:1058300000AF78600A1CFB1C1A700323FB613B1C41
:105840001B3303221A7000237B617A680F231340F5
:10585000FB60FB68062B00D912E1FB689A008D4BB8
:10586000D3181B689F46FB1C1B780B2B2ED89A0065
:10587000894BD3181B689F460423FB613B1C1B33D9
:1058800000221A7029E00323FB613B1C1B33012219
:105890001A7022E00223FB613B1C1B3302221A70A8
:1058A0001BE00123FB613B1C1B3303221A7014E035
:1058B0000523FB613B1C1B3305221A700DE0774A60
:1058C000774B101C191CFEF71BFA06E0734A754B48
:1058D000101C191CFEF714FAD9E03B1C1B331B7873
:1058E000181C0121012200F05BF9FFF7B9FA6E4B99
:1058F000FA695A6200F0C2F901F060FE031CBB6055
:10590000BB68181CFFF76EFAC1E0FB1C1B780B2B61
:1059100025D89A00654BD3181B689F4600233B612E
:1059200024E000200121012200F03AF902233B612A
:105930001CE001200121012200F032F901233B612A
:1059400014E05B4B181C02210122FFF72BFA032302
:105950003B610BE000233B6101237B6106E04F4A82
:10596000544B101C191CFEF7CBF990E0FB68022B7E
:105970000BD14D4B4C4A916A4F4A11403A69114341
:105980007A6912040A439A6281E0474B464A916A57
:105990004A4A11403A69920011437A6912050A4352
:1059A0009A6274E0FB1C1B78022B06D0032B0CD0F0
:1059B000012B12D100233B6116E0002001210122BE
:1059C00000F0EEF802233B610EE0012001210122EC
:1059D00000F0E6F801233B6106E0304A384B101C2A
:1059E000191CFEF78DF952E02F4B2F4A926A302195
:1059F000101C8843011C3A6912010A439A6246E06E
:105A0000FB1C1B78032B13D0092B21D0022B2FD189
:105A100000200121012200F0C3F8234B40225A62EA
:105A2000C046214BDA6A80235B021340F9D026E09E
:105A300001200121012200F0B3F81B4B60225A62C1
:105A4000C046194BDA6A80239B021340F9D016E056
:105A500005200121012200F0A3F8134B80225A6295
:105A6000C046114BDA6A8023DB021340F9D006E00E
:105A70000A4A144B101C191CFEF742F907E006E015
:105A8000064A114B101C191CFEF73AF9C046BD46D8
:105A900008B080BD4C94000068940000CC930000D6
:105AA000460600004B06000000800C409894000061
:105AB00040800C4096060000FCFFFEFFF3FFEFFF66
:105AC000C7060000210700002907000090B587B035
:105AD00000AF021CFB1D1A70FB1D1B78042B25D880
